:400000000080002011000000310700003107000008B5044B1A6803F53F5302331A6000F08FFB00BFFA46004010B5054C237833B9044B13B10448AFF300800123237010BD7D
:400040002882FF1F0000000018150000084B10B51BB108490848AFF300800848036803B910BD074B002BFBD0BDE81040184700BF000000002C82FF1F18150000C880FF1FE6
:400080000000000018B908B500F014F808BD704708B562B600F04EFE00F026FD00F0B6FD01F01AF90020FFF7EDFF40F6B83000F0D3F9F7E738B500F0E5F9E121012000F0E7
:4000C000AFF9D64C206800F0C7F9E121022000F0A7F9E121012000F0A3F9206800F0BCF9E121022000F09CF9E121012000F098F9206800F0B1F9E121022000F091F97021D0
:40010000012000F08DF97021032000F089F9E121032000F085F9E121022000F081F9206800F09AF9E121032000F07AF9E121022000F076F9206800F08FF9E121032000F0B6
:400140006FF9E121022000F06BF9206800F084F9E121032000F064F97021042000F060F97021052000F05CF9E121052000F058F9E121042000F054F9206800F06DF9E12194
:40018000052000F04DF9E121042000F049F9206800F062F9E121052000F042F9E121042000F03EF9206800F057F9E121052000F037F97021042000F033F97021022000F097
:4001C0002FF9E121022000F02BF9E121012000F027F9206800F040F9E121022000F020F9E121012000F01CF9206800F035F94FF4E171022000F014F94FF4E171032000F064
:400200000FF94FF4E171022000F00AF9002500E1012D03D14FF4E17000F01EF9E12000F01BF97021042000F0FBF87021072000F0F7F87A4C206800F00FF9E121092000F0D4
:40024000EFF8E121092000F0EBF8206800F004F9E121082000F0E4F87021072000F0E0F87021082000F0DCF84FF4E171082000F0D7F8E12000F0F0F8E121092000F0D0F8F9
:40028000206800F0E9F8E1210A2000F0C9F87021092000F0C5F870210A2000F0C1F870210A2000F0BDF87021092000F0B9F8E121082000F0B5F8206800F0CEF84FF4E171E8
:4002C000072000F0ADF8E12000F0C6F8E121072000F0A6F8206800F0BFF8E121072000F09FF8E121052000F09BF8206800F0B4F8E121072000F094F87021082000F090F859
:400300007021092000F08CF84FF4E171092000F087F840F2465000F09FF84FF4E17000F09BF8E12000F098F87021042000F078F87021072000F074F8206800F08DF8E12153
:40034000092000F06DF8E121092000F069F8206800F082F8E121082000F062F87021072000F05EF87021082000F05AF84FF4E171082000F055F8E12000F06EF8E1210920A8
:4003800000F04EF8206800F067F8E1210A2000F047F87021092000F043F870210A2000F03FF870210A2000F03BF87021092000F037F8E121082000F033F8206800F04CF856
:4003C00000240DE0E121072000F02AF8032C03D1124B186800F040F8032000F03DF80134052CEFDDE1210A2000F01AF8E121092000F016F8094B186800F02EF84FF4E17159
:40040000072000F00DF81DB940F2465000F024F80135012D7FF7FCAE38BD00BFCC80FF1F38B50D460B4B00011C18195A002000F01FFCA188002000F0F7FA2189002000F007
:4004400085FBA189002000F0E7FE284600F0B2FA38BD00BFD080FF1F10B5044600F0F8FB00F0D2FA00F062FB00F0C6FE204600F0A1FA00F05FFC00F037FB00F0C7FB00F002
:400480002BFF10BD08B500F033FC00F00DFB00F09DFB00F001FF08BDFEE700BFF0B40022174611E050F82760F3B226F0FF0608E001EB420511F812406D78A5550132013B29
:4004C000DBB2002BF4D10137132FEBD9F0BC70470E4B1B78DBB203F007010D4A11701B090132137040F202220A4B1A8001230A4A1370083213702021053211700B32137002
:40050000C03213704422054B1A707047CF0100496E5800400C510040835A00407658004008B50A46002100F0EEFF08BD38B53B22294B1A80182329490B7002310A80023128
:400540000B7002310A8002310B7002310A80244A13700222234B1A7008224FF040231A70032103F5007319701F4B1B78DBB21F490B701F4B1A8041F25122023B1A8000244B
:4005800019250CE01B4B1B7803F0010343EA440404F003044FF4F07000F06EFF013D0DB1032CEFD115B90320FFF776FF124B4FF480721A8007221A70002210490A7048202E
:4005C000023108701A700222033B1A700C4A137843F00F03137038BD80400040824000408E4000400043004008010049A146004022420040254200400440004006400040DB
:40060000A243004008B500F073FF08BD38B572B6324A137843F00403137000240CE0304D630019194A0011462A44084691882858FFF776FF0134E4B2072CF0D929494FF0DD
:400640009040FFF72BFF04212748FFF769FF04212648FFF765FF04212548FFF761FF04212448FFF75DFF04212348FFF759FF04212248FFF755FF04212148FFF751FF042130
:400680002048FFF74DFF204A137843F0020313701032137843F00203137008221B491C48FFF7B0FF08221B491B48FFF7ABFF1B4A137843F008031370194C61232370FFF70D
:4006C00035FF812323700122164B1A70FFF700FF0E2215491548FFF795FF38BDE84600401C150000500000480076004008760040107600401876004020760040287600402F
:40070000307600403876004003500140D400004802510040DC00004812510040224300400048004004000840A0430040B043004008B500F0B1FE03680C2B00D1FEE7FEE773
:4007400008B5104E104D16E029686B68AC68002204E051F8040B43F8040B0432A242F8D1E868002203E0002143F8041B04328242F9D11035013E002EE6D100F093FEFFF794
:4007800087FCFEE701000000C02C000008B5114A114B1A60114A136843F40073136000230AE0032B03D80E4A52F8231000E00D490D4A42F8231001332F2BF2D90B4B1A78DD
:4007C0000B4B1A70084A0B4B1A60FFF71FFF00F013F808BD0004FA050CED00E014ED00E000000000310700000080FF1FBC760040C080FF1F08ED00E00B4A7F2313708021D0
:40080000517007E0DA0002F1804202F5F042013BDBB21370002BF5D1DB0003F1804303F5F04300221A707047A081FF1F172815D831B103010A495A5C42F020025A5405E0BA
:40084000030107495A5C02F0DF025A540001044A835C43F00103835400207047012070471070004017280BD80001064BC25C02F0FE02C254C25C02F0DF02C25400207047CA
:40088000012070471070004017280BD80001064A835C03F0F103490001F00E011943815400207047012070471070004041F6FF73994201D14FF4005141F6FF739A4201D13D
:4008C0004FF40052172808D8C00000F1804000F5EC408180C280002070470120704700BF172805D8034B03EB0010417200207047012070471070004017281BD810B4C000C1
:4009000000F1804404F5EC44D201D2B201F07F01114321709DF804201201D2B203F00F03134363709DF8083003F00F03A3700020E07001E00120704710BC704710B500F068
:40094000A3FD0A4B5B78182B0BD9084A1478013B5370E30003F1804303F5F0431B78137000E0FF2400F094FD204610BDA081FF1F10F0800F0CD111F4704F0BD1C00000F11D
:40098000804000F5F04001808270C37000207047012070470120704710F0800F08D1C00000F1804000F5F0408180C280002070470120704710B5044605E0084B186800F07E
:4009C0005BFDA4F50044B4F5004FF6D8034B586800FB04F000F050FD10BD00BFA881FF1F10B500F00DFA074C01212078FFF71EFF01216078FFF71AFF002000F02BFA00F0E5
:400A0000A7F910BD4482FF1F10B500F0AFF9054C2078FFF727FF6078FFF724FF00F0FEF910BD00BF4482FF1F70B505460E464FF48043020C0121084600F0A6F9094C2070FF
:400A4000A078012302463146FFF792FF45F68232A9B2A078FFF7A0FFA1782078FFF740FF70BD00BF4482FF1F70B505460E464FF48043020C0121084600F0A4F9094C60704D
:400A8000E078012302463146FFF772FF45F68232A9B2E078FFF780FFE1786078FFF720FF70BD00BF4482FF1F10B500F0FBF9022000F0C2F9002000F0E5F9FFF73FFF084C7B
:400AC000A070FFF73BFFE070064C4FF4E2712046FFF7AAFF642104F5E270FFF7C5FF10BD4482FF1F4C15000008B5054B1B7923B9FFF7DAFF0122024B1A71FFF771FF08BD6B
:400B00004482FF1F10B500F03BFA074C01212078FFF78CFE01216078FFF788FE002000F059FA00F0D5F910BD4982FF1F10B500F0DDF9054C2078FFF795FE6078FFF792FEB2
:400B400000F02CFA10BD00BF4982FF1F70B505460E464FF48043020C0121084600F0D4F9094C2070A078012302463146FFF700FF4FF4B742A9B2A078FFF70EFFA1782078AD
:400B8000FFF7AEFE70BD00BF4982FF1F70B505460E464FF48043020C0121084600F0D2F9094C6070E078012302463146FFF7E0FE4FF4B742A9B2E078FFF7EEFEE178607885
:400BC000FFF78EFE70BD00BF4982FF1F10B500F029FA022000F0F0F9002000F013FAFFF7ADFE084CA070FFF7A9FEE070064CBC212046FFF7ABFF642104F1BC00FFF7C6FF96
:400C000010BD00BF4982FF1F7417000008B5054B1B7923B9FFF7DAFF0122024B1A71FFF771FF08BD4982FF1F10B500F069FA074C01212078FFF7FAFD01216078FFF7F6FD64
:400C4000002000F087FA00F003FA10BD4E82FF1F10B500F00BFA054C2078FFF703FE6078FFF700FE00F05AFA10BD00BF4E82FF1F70B505460E464FF48043020C01210846CF
:400C800000F002FA094C2070A078012302463146FFF76EFE45F68332A9B2A078FFF77CFEA1782078FFF71CFE70BD00BF4E82FF1F70B505460E464FF48043020C0121084650
:400CC00000F000FA094C6070E078012302463146FFF74EFE45F68332A9B2E078FFF75CFEE1786078FFF7FCFD70BD00BF4E82FF1F10B500F057FA022000F01EFA002000F03B
:400D000041FAFFF71BFE094CA070FFF717FEE070074C40F289312046FFF7AAFF4FF47A6104F56370FFF7C4FF10BD00BF4E82FF1F9418000008B5054B1B7923B9FFF7D8FF52
:400D40000122024B1A71FFF76FFF08BD4E82FF1F054A137843F0080313701032137843F008031370704700BFA2430040054A137803F0F70313701032137803F0F703137016
:400D8000704700BFA2430040F0B583B016461F460B4C022525700023019300930A4601462846FFF7A9FD3A4631462078FFF77EFD29462078FFF768FD207803B0F0BD00BFE8
:400DC000B881FF1FF0B583B016461F460B4C032525700023019300930A4601462846FFF78BFD3A4631462078FFF760FD02212078FFF74AFD207803B0F0BD00BFB981FF1F39
:400E0000054A137843F0040313701032137843F004031370704700BFA8430040054A137803F0FB0313701032137803F0FB031370704700BFA8430040054B1A7802F0FD02ED
:400E40001A701A7800F0020010431870704700BF28580040014B1870704700BF825B0040064B1B78C3F3810303F19243063393F82831DBB2024A1370704700BF2858004056
:400E80000A46004008B5064B1A7802F0F3021A701A7800F00C0010431870FFF7E1FF08BD2858004008B50020074B187001331870064A137843F008031370FFF7E3FF0220C4
:400EC000FFF7BAFF08BD00BF28580040975A0040054A137843F0020313701032137843F002031370704700BFA2430040054A137803F0FD0313701032137803F0FD03137083
:400F0000704700BFA2430040F0B583B016461F460B4C042525700023019300930A4601462846FFF7E9FC3A4631462078FFF7BEFC02212078FFF7A8FC207803B0F0BD00BFF3
:400F4000BA81FF1FF0B583B016461F460B4C052525700023019300930A4601462846FFF7CBFC3A4631462078FFF7A0FC02212078FFF78AFC207803B0F0BD00BFBB81FF1FF4
:400F8000054A137843F0010313701032137843F001031370704700BFA8430040054A137803F0FE0313701032137803F0FE031370704700BFA8430040054B1A7802F0FD026C
:400FC0001A701A7800F0020010431870704700BF20580040014B1870704700BF805B0040064B1B78C3F3810303F19243063393F82031DBB2024A1370704700BF20580040EF
:401000000846004008B5064B1A7802F0F3021A701A7800F00C0010431870FFF7E1FF08BD2058004008B50020074B187001331870064A137843F008031370FFF7E3FF02204C
:40104000FFF7BAFF08BD00BF20580040875A0040054A137843F0010313701032137843F001031370704700BFA2430040054A137803F0FE0313701032137803F0FE03137019
:40108000704700BFA2430040F0B583B016461F460B4D00242C700194009423460A4601462046FFF729FC3A4631462878FFF7FEFB02212878FFF7E8FB287803B0F0BD00BF59
:4010C000BC81FF1FF0B583B016461F460B4C012525700023019300930A4601462846FFF70BFC3A4631462078FFF7E0FB02212078FFF7CAFB207803B0F0BD00BFBD81FF1FB5
:40110000054A137843F0080313701032137843F008031370704700BFA8430040054A137803F0F70313701032137803F0F7031370704700BFA8430040054B1A7802F0FD02EA
:401140001A701A7800F0020010431870704700BF2C580040014B1870704700BF835B0040064B1B78C3F3810303F19243063393F83831DBB2024A1370704700BF2C5800403A
:401180000B46004008B5064B1A7802F0F3021A701A7800F00C0010431870FFF7E1FF08BD2C58004008B50020074B187001331870064A137843F008031370FFF7E3FF0220BC
:4011C000FFF7BAFF08BD00BF2C5800409F5A004010B500F0E7F8074C01212078FFF726FB01216078FFF722FB002000F005F900F081F810BD5382FF1F10B500F089F8054C3C
:401200002078FFF72FFB6078FFF72CFB00F0D8F810BD00BF5382FF1F70B505460E464FF48043020C0121084600F080F8094C2070A078012302463146FFF79AFB45F68132B9
:40124000A9B2A078FFF7A8FBA1782078FFF748FB70BD00BF5382FF1F70B505460E464FF48043020C0121084600F07EF8094C6070E078012302463146FFF77AFB45F6813232
:40128000A9B2E078FFF788FBE1786078FFF728FB70BD00BF5382FF1F10B500F0D5F8022000F09CF8002000F0BFF8FFF747FB084CA070FFF743FBE070064C71212046FFF78A
:4012C000ABFF642104F17400FFF7C6FF10BD00BF5382FF1FC02B000008B5054B1B7923B9FFF7DAFF0122024B1A71FFF771FF08BD5382FF1F054A137843F0040313701032F3
:40130000137843F004031370704700BFA2430040054A137803F0FB0313701032137803F0FB031370704700BFA2430040F0B583B016461F460B4C06252570002301930093A6
:401340000A4601462846FFF7D7FA3A4631462078FFF7ACFA02212078FFF796FA207803B0F0BD00BFBE81FF1FF0B583B016461F460B4C072525700023019300930A4601468F
:401380002846FFF7B9FA3A4631462078FFF78EFA02212078FFF778FA207803B0F0BD00BFBF81FF1F054A137843F0020313701032137843F002031370704700BFA843004013
:4013C000054A137803F0FD0313701032137803F0FD031370704700BFA8430040054B1A7802F0FD021A701A7800F0020010431870704700BF24580040014B1870704700BF81
:40140000815B0040064B1B78C3F3810303F19243063393F83031DBB2024A1370704700BF245800400946004008B5064B1A7802F0F3021A701A7800F00C0010431870FFF7F7
:40144000E1FF08BD2458004008B50020074B187001331870064A137843F008031370FFF7E3FF0220FFF7BAFF08BD00BF245800408F5A0040000000000230800803D000BF9E
:4014800001380046FCD17047EFF3108072B6704780F31088704700BF014B1868704700BF2082FF1F0E4B70B51E460E4C0025E41AA410A54204D056F8253098470135F8E7F0
:4014C00001F0ECFB084B094C1E46E41AA4100025A54204D056F8253098470135F8E770BDA82C0000A82C0000A82C0000B02C000010B5431E0A44914204D011F8014B03F8EF
:40150000014FF8E710BD03460244934202D003F8011BFAE77047000000000000205100405000C05100401000F0510040100000000140001000140140000800400140000A9E
:40154000004C014000020050014020008081838586888A8C8D8F9193949698999B9D9EA0A2A3A5A7A8AAACADAFB1B2B4B5B7B8BABBBDBFC0C1C3C4C6C7C9CACBCDCED0D1A7
:40158000D2D3D5D6D7D9DADBDCDDDEE0E1E2E3E4E5E6E7E8E9EAEBEBECEDEEEFF0F0F1F2F2F3F4F4F5F6F6F7F7F8F8F9F9F9FAFAFAFBFBFBFCFCFCFCFCFCFCFCFCFCFCFC93
:4015C000FCFCFCFCFCFCFCFBFBFBFAFAFAF9F9F9F8F8F7F7F6F6F5F4F4F3F2F2F1F0F0EFEEEDECEBEBEAE9E8E7E6E5E4E3E2E1E0DEDDDCDBDAD9D7D6D5D3D2D1D0CECDCB38
:40160000CAC9C7C6C4C3C1C0BFBDBBBAB8B7B5B4B2B1AFADACAAA8A7A5A3A2A09E9D9B9998969493918F8D8C8A8886858381807E7C7A7977757372706E6C6B6967666462BE
:40164000615F5D5C5A5857555352504E4D4B4A4847454442403F3E3C3B393836353432312F2E2D2C2A29282625242322211F1E1D1C1B1A19181716151414131211100F0FBD
:401680000E0D0D0C0B0B0A090908080707060606050505040404030303030303030303030303030303030303030404040505050606060707080809090A0B0B0C0D0D0E0F80
:4016C0000F10111213141415161718191A1B1C1D1E1F21222324252628292A2C2D2E2F313234353638393B3C3E3F4042444547484A4B4D4E5052535557585A5C5D5F6162EA
:40170000646667696B6C6E7072737577797A7C7E8080808080808080808080808080808080808080808080808080808080808080808080808080808080808080808080809C
:40174000808080808080808080808080808080808080808080808080808080808080808080808080808080808080808080808080808080807D81858A8E92969A9EA2A6AA7C
:40178000AEB2B5B9BDC0C4C7CACED1D4D7DADCDFE2E4E6E9EBEDEEF0F2F3F4F6F7F7F8F9F9FAFAFAFAFAF9F9F8F7F7F6F4F3F2F0EEEDEBE9E6E4E2DFDCDAD7D4D1CECAC774
:4017C000C4C0BDB9B5B2AEAAA6A29E9A96928E8A85817D7975706C6864605C5854504C4845413D3A3633302C292623201E1B181614110F0D0C0A08070604030302010100D6
:40180000000000000101020303040607080A0C0D0F111416181B1E202326292C3033363A3D4145484C5054585C6064686C7075798080808080808080808080808080808091
:401840008080808080808080808080808080808080808080808080808080808080808080808080808080808080808080808080808080808080808080808080808080808068
:4018800080808080808080808080808080808080808080808080818283848586878788898A8B8C8D8E8F8F90919293949596969798999A9B9C9C9D9E9FA0A1A2A2A3A4A5FF
:4018C000A6A7A8A8A9AAABACADADAEAFB0B1B1B2B3B4B5B6B6B7B8B9B9BABBBCBDBDBEBFC0C0C1C2C3C3C4C5C6C6C7C8C9C9CACBCCCCCDCECECFD0D0D1D2D2D3D4D4D5D636
:40190000D6D7D8D8D9DADADBDBDCDDDDDEDEDFE0E0E1E1E2E2E3E4E4E5E5E6E6E7E7E8E8E9E9EAEAEBEBECECEDEDEEEEEEEFEFF0F0F1F1F1F2F2F3F3F3F4F4F4F5F5F5F6BA
:40194000F6F6F7F7F7F8F8F8F8F9F9F9FAFAFAFAFBFBFBFBFBFCFCFCFCFCFDFDFDFDFDFDFDFEFEFEFEFEFEFEFEFEFFFFFFFFFFFFFFFFFFFFFFFFFFFFFFFFFFFFFFFFFFFF4D
:40198000FFFFFFFFFEFEFEFEFEFEFEFEFEFDFDFDFDFDFDFCFCFCFCFCFCFBFBFBFBFAFAFAFAF9F9F9F9F8F8F8F7F7F7F7F6F6F6F5F5F5F4F4F3F3F3F2F2F2F1F1F0F0F0EFF2
:4019C000EFEEEEEDEDECECEBEBEBEAEAE9E9E8E8E7E7E6E5E5E4E4E3E3E2E2E1E0E0DFDFDEDEDDDCDCDBDBDAD9D9D8D7D7D6D5D5D4D3D3D2D1D1D0CFCFCECDCDCCCBCACA7C
:401A0000C9C8C8C7C6C5C5C4C3C2C2C1C0BFBFBEBDBCBBBBBAB9B8B8B7B6B5B4B3B3B2B1B0AFAFAEADACABAAAAA9A8A7A6A5A5A4A3A2A1A09F9F9E9D9C9B9A999998979696
:401A4000959493929291908F8E8D8C8B8B8A89888786858483838281807F7E7D7C7C7B7A79787776757474737271706F6E6D6D6C6B6A6968676666656463626160605F5E0F
:401A80005D5C5B5A5A5958575655555453525150504F4E4D4C4C4B4A494847474645444443424140403F3E3D3D3C3B3A3A39383737363535343332323130302F2E2E2D2C3C
:401AC0002C2B2A2A292828272626252424232322212120201F1F1E1D1D1C1C1B1B1A1A19181817171616151514141413131212111110100F0F0F0E0E0D0D0D0C0C0C0B0B81
:401B00000A0A0A09090908080808070707060606060505050504040404030303030303020202020202010101010101010101000000000000000000000000000000000000D4
:401B40000000000000000000010101010101010101020202020202020303030303040404040405050505060606070707070808080909090A0A0A0B0B0B0C0C0C0D0D0E0E1D
:401B80000E0F0F1010111111121213131414151516161717181819191A1A1B1B1C1D1D1E1E1F1F202121222223242425252627272829292A2B2B2C2D2D2E2F2F3031313275
:401BC000333334353636373839393A3B3C3C3D3E3F3F404142424344454646474849494A4B4C4D4E4E4F5051525253545556575758595A5B5C5D5D5E5F606162636364651C
:401C000066676869696A6B6C6D6E6F7070717273747576777878797A7B7C7D7E7F000000808080808080818181818182828282828383838383848484848485858585858661
:401C4000868686868787878787888888888889898989898A8A8A8A8A8A8B8B8B8B8B8C8C8C8C8C8D8D8D8D8D8E8E8E8E8E8F8F8F8F8F909090909091919191919292929266
:401C800092929393939393949494949495959595959696969696979797979798989898989899999999999A9A9A9A9A9B9B9B9B9B9C9C9C9C9C9C9D9D9D9D9D9E9E9E9E9E0E
:401CC0009F9F9F9F9FA0A0A0A0A0A0A1A1A1A1A1A2A2A2A2A2A3A3A3A3A3A4A4A4A4A4A4A5A5A5A5A5A6A6A6A6A6A7A7A7A7A7A7A8A8A8A8A8A9A9A9A9A9A9AAAAAAAAAAC2
:401D0000ABABABABABACACACACACACADADADADADAEAEAEAEAEAEAFAFAFAFAFB0B0B0B0B0B0B1B1B1B1B1B2B2B2B2B2B2B3B3B3B3B3B3B4B4B4B4B4B5B5B5B5B5B5B6B6B68D
:401D4000B6B6B6B7B7B7B7B7B8B8B8B8B8B8B9B9B9B9B9B9BABABABABABBBBBBBBBBBBBCBCBCBCBCBCBDBDBDBDBDBDBEBEBEBEBEBEBFBFBFBFBFBFC0C0C0C0C0C0C1C1C17D
:401D8000C1C1C1C2C2C2C2C2C2C3C3C3C3C3C3C4C4C4C4C4C4C5C5C5C5C5C5C6C6C6C6C6C6C7C7C7C7C7C7C8C8C8C8C8C8C8C9C9C9C9C9C9CACACACACACACBCBCBCBCBCB92
:401DC000CBCCCCCCCCCCCCCDCDCDCDCDCDCECECECECECECECFCFCFCFCFCFCFD0D0D0D0D0D0D1D1D1D1D1D1D1D2D2D2D2D2D2D2D3D3D3D3D3D3D3D4D4D4D4D4D4D4D5D5D5D2
:401E0000D5D5D5D5D6D6D6D6D6D6D6D7D7D7D7D7D7D7D8D8D8D8D8D8D8D9D9D9D9D9D9D9DADADADADADADADADBDBDBDBDBDBDBDCDCDCDCDCDCDCDCDDDDDDDDDDDDDDDEDE48
:401E4000DEDEDEDEDEDEDFDFDFDFDFDFDFDFE0E0E0E0E0E0E0E0E1E1E1E1E1E1E1E1E2E2E2E2E2E2E2E2E3E3E3E3E3E3E3E3E3E4E4E4E4E4E4E4E4E5E5E5E5E5E5E5E5E5F6
:401E8000E6E6E6E6E6E6E6E6E6E7E7E7E7E7E7E7E7E7E8E8E8E8E8E8E8E8E8E9E9E9E9E9E9E9E9E9E9EAEAEAEAEAEAEAEAEAEAEBEBEBEBEBEBEBEBEBEBECECECECECECECE5
:401EC000ECECECEDEDEDEDEDEDEDEDEDEDEEEEEEEEEEEEEEEEEEEEEEEFEFEFEFEFEFEFEFEFEFEFEFF0F0F0F0F0F0F0F0F0F0F0F1F1F1F1F1F1F1F1F1F1F1F1F2F2F2F2F218
:401F0000F2F2F2F2F2F2F2F2F3F3F3F3F3F3F3F3F3F3F3F3F3F4F4F4F4F4F4F4F4F4F4F4F4F4F4F4F5F5F5F5F5F5F5F5F5F5F5F5F5F5F6F6F6F6F6F6F6F6F6F6F6F6F6F694
:401F4000F6F6F7F7F7F7F7F7F7F7F7F7F7F7F7F7F7F7F7F7F8F8F8F8F8F8F8F8F8F8F8F8F8F8F8F8F8F8F8F9F9F9F9F9F9F9F9F9F9F9F9F9F9F9F9F9F9F9F9F9F9FAFAFA5B
:401F8000FAFAFAFAFAFAFAFAFAFAFAFAFAFAFAFAFAFAFAFAFAFAFBFBFBFBFBFBFBFBFBFBFBFBFBFBFBFBFBFBFBFBFBFBFBFBFBFBFBFBFBFBFBFBFBFBFCFCFCFCFCFCFCFC6F
:401FC000FCFCFCFCFCFCFCFCFCFCFCFCFCFCFCFCFCFCFCFCFCFCFCFCFCFCFCFCFCFCFCFCFCFCFCFCFCFCFCFCFCFCFCFCFCFCFCFCFCFCFCFCFCFCFCFCFCFCFCFCFCFCFCFCE1
:40200000FCFCFCFCFCFCFCFCFCFCFCFCFCFCFCFCFCFCFCFCFCFCFCFCFCFCFCFCFCFCFCFCFCFCFCFCFCFCFCFCFCFCFCFCFCFCFCFCFCFCFCFCFCFCFCFCFCFCFCFCFCFCFCFCA0
:40204000FCFCFCFCFCFCFCFCFCFCFCFCFCFCFCFCFCFCFCFCFCFCFCFCFCFBFBFBFBFBFBFBFBFBFBFBFBFBFBFBFBFBFBFBFBFBFBFBFBFBFBFBFBFBFBFBFBFBFBFAFAFAFAFA8C
:40208000FAFAFAFAFAFAFAFAFAFAFAFAFAFAFAFAFAFAFAFAF9F9F9F9F9F9F9F9F9F9F9F9F9F9F9F9F9F9F9F9F9F9F8F8F8F8F8F8F8F8F8F8F8F8F8F8F8F8F8F8F8F7F7F7E5
:4020C000F7F7F7F7F7F7F7F7F7F7F7F7F7F7F7F6F6F6F6F6F6F6F6F6F6F6F6F6F6F6F6F5F5F5F5F5F5F5F5F5F5F5F5F5F5F4F4F4F4F4F4F4F4F4F4F4F4F4F4F4F3F3F3F389
:40210000F3F3F3F3F3F3F3F3F3F2F2F2F2F2F2F2F2F2F2F2F2F2F1F1F1F1F1F1F1F1F1F1F1F1F0F0F0F0F0F0F0F0F0F0F0EFEFEFEFEFEFEFEFEFEFEFEFEEEEEEEEEEEEEE78
:40214000EEEEEEEEEDEDEDEDEDEDEDEDEDEDECECECECECECECECECECEBEBEBEBEBEBEBEBEBEBEAEAEAEAEAEAEAEAEAEAE9E9E9E9E9E9E9E9E9E9E8E8E8E8E8E8E8E8E8E7B2
:40218000E7E7E7E7E7E7E7E7E6E6E6E6E6E6E6E6E6E5E5E5E5E5E5E5E5E5E4E4E4E4E4E4E4E4E3E3E3E3E3E3E3E3E3E2E2E2E2E2E2E2E2E1E1E1E1E1E1E1E1E0E0E0E0E031
:4021C000E0E0E0DFDFDFDFDFDFDFDFDEDEDEDEDEDEDEDEDDDDDDDDDDDDDDDCDCDCDCDCDCDCDCDBDBDBDBDBDBDBDADADADADADADADAD9D9D9D9D9D9D9D8D8D8D8D8D8D8D7F1
:40220000D7D7D7D7D7D7D6D6D6D6D6D6D6D5D5D5D5D5D5D5D4D4D4D4D4D4D4D3D3D3D3D3D3D3D2D2D2D2D2D2D2D1D1D1D1D1D1D1D0D0D0D0D0D0CFCFCFCFCFCFCFCECECEEE
:40224000CECECECECDCDCDCDCDCDCCCCCCCCCCCCCBCBCBCBCBCBCBCACACACACACAC9C9C9C9C9C9C8C8C8C8C8C8C8C7C7C7C7C7C7C6C6C6C6C6C6C5C5C5C5C5C5C4C4C4C41D
:40228000C4C4C3C3C3C3C3C3C2C2C2C2C2C2C1C1C1C1C1C1C0C0C0C0C0C0BFBFBFBFBFBFBEBEBEBEBEBEBDBDBDBDBDBDBCBCBCBCBCBCBBBBBBBBBBBBBABABABABAB9B9B97F
:4022C000B9B9B9B8B8B8B8B8B8B7B7B7B7B7B6B6B6B6B6B6B5B5B5B5B5B5B4B4B4B4B4B3B3B3B3B3B3B2B2B2B2B2B2B1B1B1B1B1B0B0B0B0B0B0AFAFAFAFAFAEAEAEAEAE06
:40230000AEADADADADADACACACACACACABABABABABAAAAAAAAAAA9A9A9A9A9A9A8A8A8A8A8A7A7A7A7A7A7A6A6A6A6A6A5A5A5A5A5A4A4A4A4A4A4A3A3A3A3A3A2A2A2A2AF
:40234000A2A1A1A1A1A1A0A0A0A0A0A09F9F9F9F9F9E9E9E9E9E9D9D9D9D9D9C9C9C9C9C9C9B9B9B9B9B9A9A9A9A9A99999999999898989898989797979797969696969675
:40238000959595959594949494949393939393929292929292919191919190909090908F8F8F8F8F8E8E8E8E8E8D8D8D8D8D8C8C8C8C8C8B8B8B8B8B8A8A8A8A8A8A89894D
:4023C000898989888888888887878787878686868686858585858584848484848383838383828282828281818181818080808080807F7F7F7F7F7E7E7E7E7E7D7D7D7D7D2C
:402400007C7C7C7C7C7B7B7B7B7B7A7A7A7A7A7979797979787878787877777777777676767676757575757575747474747473737373737272727272717171717170707011
:4024400070706F6F6F6F6F6E6E6E6E6E6D6D6D6D6D6D6C6C6C6C6C6B6B6B6B6B6A6A6A6A6A69696969696868686868676767676767666666666665656565656464646464EE
:402480006363636363636262626262616161616160606060605F5F5F5F5F5F5E5E5E5E5E5D5D5D5D5D5C5C5C5C5C5B5B5B5B5B5B5A5A5A5A5A5959595959585858585858BD
:4024C000575757575756565656565655555555555454545454535353535353525252525251515151515150505050504F4F4F4F4F4F4E4E4E4E4E4D4D4D4D4D4D4C4C4C4C78
:402500004C4C4B4B4B4B4B4A4A4A4A4A4A49494949494948484848484747474747474646464646464545454545444444444444434343434343424242424242414141414110
:40254000414040404040403F3F3F3F3F3F3E3E3E3E3E3E3D3D3D3D3D3D3C3C3C3C3C3C3B3B3B3B3B3B3A3A3A3A3A3A39393939393938383838383837373737373737363685
:40258000363636363535353535353434343434343433333333333332323232323231313131313131303030303030302F2F2F2F2F2F2E2E2E2E2E2E2E2D2D2D2D2D2D2D2CD1
:4025C0002C2C2C2C2C2C2B2B2B2B2B2B2B2A2A2A2A2A2A2A2929292929292928282828282828272727272727272626262626262625252525252525252424242424242423E7
:402600002323232323232322222222222222212121212121212120202020202020201F1F1F1F1F1F1F1F1E1E1E1E1E1E1E1E1D1D1D1D1D1D1D1D1C1C1C1C1C1C1C1C1C1BC8
:402640001B1B1B1B1B1B1B1A1A1A1A1A1A1A1A1A19191919191919191918181818181818181817171717171717171716161616161616161616151515151515151515151469
:40268000141414141414141414131313131313131313131212121212121212121211111111111111111111111010101010101010101010100F0F0F0F0F0F0F0F0F0F0F0EC6
:4026C0000E0E0E0E0E0E0E0E0E0E0E0D0D0D0D0D0D0D0D0D0D0D0D0D0C0C0C0C0C0C0C0C0C0C0C0C0C0B0B0B0B0B0B0B0B0B0B0B0B0B0B0B0A0A0A0A0A0A0A0A0A0A0A0ADE
:402700000A0A0909090909090909090909090909090908080808080808080808080808080808080807070707070707070707070707070707070707060606060606060606AA
:402740000606060606060606060606060605050505050505050505050505050505050505050505050505040404040404040404040404040404040404040404040404040426
:402780000404040404040404030303030303030303030303030303030303030303030303030303030303030303030303030303030303030303030303030303030303030351
:4027C0000303030303030303030303030303030303030303030303030303030303030303030303030303030303030303030303030303030303030303030303030303030319
:4028000003030303030303030303030303030303030303030303030303030303030303030303030303030303030404040404040404040404040404040404040404040404C1
:402840000404040404040404040404050505050505050505050505050505050505050505050505050606060606060606060606060606060606060606060607070707070701
:4028800007070707070707070707070707080808080808080808080808080808080808090909090909090909090909090909090A0A0A0A0A0A0A0A0A0A0A0A0A0A0B0B0BF0
:4028C0000B0B0B0B0B0B0B0B0B0B0B0B0C0C0C0C0C0C0C0C0C0C0C0C0C0D0D0D0D0D0D0D0D0D0D0D0D0D0E0E0E0E0E0E0E0E0E0E0E0E0F0F0F0F0F0F0F0F0F0F0F10101092
:4029000010101010101010101011111111111111111111111212121212121212121213131313131313131313141414141414141414141515151515151515151516161616E8
:402940001616161616161717171717171717171818181818181818181919191919191919191A1A1A1A1A1A1A1A1A1B1B1B1B1B1B1B1B1C1C1C1C1C1C1C1C1C1D1D1D1D1DFC
:402980001D1D1D1E1E1E1E1E1E1E1E1F1F1F1F1F1F1F1F202020202020202021212121212121212222222222222223232323232323232424242424242425252525252525CB
:4029C00025262626262626262727272727272728282828282828292929292929292A2A2A2A2A2A2A2B2B2B2B2B2B2B2C2C2C2C2C2C2C2D2D2D2D2D2D2D2E2E2E2E2E2E2E5C
:402A00002F2F2F2F2F2F30303030303030313131313131313232323232323333333333333434343434343435353535353536363636363637373737373737383838383838B8
:402A40003939393939393A3A3A3A3A3A3B3B3B3B3B3B3C3C3C3C3C3C3D3D3D3D3D3D3E3E3E3E3E3E3F3F3F3F3F3F40404040404041414141414142424242424243434343E0
:402A80004343444444444444454545454546464646464647474747474748484848484949494949494A4A4A4A4A4A4B4B4B4B4B4C4C4C4C4C4C4D4D4D4D4D4D4E4E4E4E4EE4
:402AC0004F4F4F4F4F4F5050505050515151515151525252525253535353535354545454545555555555565656565656575757575758585858585859595959595A5A5A5AC1
:402B00005A5B5B5B5B5B5B5C5C5C5C5C5D5D5D5D5D5E5E5E5E5E5F5F5F5F5F5F60606060606161616161626262626263636363636364646464646565656565666666666680
:402B4000676767676767686868686869696969696A6A6A6A6A6B6B6B6B6B6C6C6C6C6C6D6D6D6D6D6D6E6E6E6E6E6F6F6F6F6F70707070707171717171727272727273732D
:402B8000737373747474747475757575757576767676767777777777787878787879797979797A7A7A7A7A7B7B7B7B7B7C7C7C7C7C7D7D7D7D7D7E7E7E7E7E7F7F7F7F7FCD
:402BC00080858B90969BA0A5ABAFB4B9BDC2C6CACDD1D4D7D9DBDEDFE1E2E3E3E3E3E3E2E1E0DEDDDAD8D5D2CFCBC8C4C0BBB7B2ADA8A39E98938D88827D77726C67615C6E
:402C000057524D48443F3B3734302D2A272522211F1E1D1C1C1C1C1C1D1E20212426282B2E3235393D42464B50545A5F64696F747A000000808080808080808080808080B3
:402C40008080808080808080808080808080808080808080808080808080808080808080808080808080808080808080808080808080808080808080808080808080808054
:402C800080808080808080808080808080808080808080808080808043000000F8B500BFF8BC08BC9E4670474D0000008D070000F8B500BFF8BC08BC9E46704729000000C9
:402CC000D02C0000C880FF1F6001000030000000000000000A000000EB050000F50200007A010000BD00000042050000A102000050010000A8000000B40400005A020000C1
:402D00002D010000960000006A040000350200001A0100008D000000ED030000F6010000FB0000007D00000089030000C4010000E2000000710000002803000094010000BF
:402D4000CA00000065000000F202000079010000BC0000005E000000A102000050010000A8000000540000005A0200002D010000960000004B000000350200001A010000EF
:402D80008D00000047000000F6010000FB0000007D0000003F000000C4010000E200000071000000390000007F800000FF0000000000E02EC05D00001800000000366E015A
:402DC000FFFFFFFFFFFFFFFF0000000000000000000000000000000000000000000000000000000000000000982C0000000000000000000000000000000000000000000017
:402E000000000000000000000000000000000000000000000000000000000000000000000000000000000000C081FF1F000000000000000000000000000000000000000033
:402E40000000000000000000000000000000000000000000000000000000000000000000000000000000000000000000000000000000000000000000000000000000000052
:402E80000000000000000000000000000000000000000000000000000000000000000000000000000000000000000000000000000000000000000000000000000000000012
:402EC00000000000000000000000000000000000000000000000000000000000000000000000000000000000000000000000000000000000000000000000000000000000D2
:402F00000000000000000000000000000000000000000000000000000000000000000000000000000000000000000000000000000000000000000000000000000000000091
:020000040003F7
:0200000480007A
:40000000045A00400103014001050140010B0140010D014002150140021B014003400140084101400542014003430140024401400445014003460140034701400748014071
:4000400007490140024C0140044D01400251014087018F0197019F01EC80EC01EC01EC80E404EC40E404EC403D803E04CEA03D023E203F4096049E20A540B220CEA0960470
:400080009740A541A901EC8096049740A5413080CC083180B080CC08EC013210A980CC0831209620CC0823402541270896049740A541C8E01A041B2083209604B708C64084
:4000C000E4209620A52082109620B520EC021022112200000000000000000300000B0B000000000000000000000000000000000000000000000000000000000000000000F8
:4001000000000000000000000000000000000000000000000000000000000000000000000000000000000000000000000000000000000000000000000000000000000000BF
:40014000000000000000000000000000000000000000000000000000000000000000000000000000000000000000000000000000000000000000000000000000000000007F
:40018000000000000000000000000000000000000000000000000000000000000000000000000000000000000000000000000000000000000000000000000000000000003F
:4001C00000000000000000000000000000000000000000000000000000000000000000000000000000000000000000000000000000000000000000000000000000000000FF
:0200000490006A
:0400000000004005B7
:0200000490105A
:04000000BC90ACAF55
:0200000490303A
:02000000891164
:0200000490402A
:4000000000000000000000000000000000000000000000000000000000000000000000000000000000000000000000000000000000000000000000000000000000000000C0
:400040000000000000000000000000000000000000000000000000000000000000000000000000000000000000000000000000000000000000000000000000000000000080
:400080000000000000000000000000000000000000000000000000000000000000000000000000000000000000000000000000000000000000000000000000000000000040
:4000C0000000000000000000000000000000000000000000000000000000000000000000000000000000000000000000000000000000000000000000000000000000000000
:0200000490501A
:0C00000000012E16106900012E2A997ACA
:00000001FF